:1000000000000120E1020000090300000B030000D2
:100010000D0300000F0300001103000000000000AA
:1000200000000000000000000000000013030000BA
:100030001503000000000000170300001903000072
:10004000D51A00001B030000351B00001B03000035
:100050001B0300001B0300001B030000091E00001F
:100060001B0300001B0300001B0300001B03000018
:100070001B0300001B0300001B0300001B03000008
:100080001B0300001B0300001B0300001B030000F8
:100090001B0300001B0300001B0300001B030000E8
:1000A0001B0300001B0300001B0300001B030000D8
:1000B0001B0300001B030000000000000000000004
:1000C0001B0300001B0300001B0300001B030000B8
:1000D000D11C00001B0300001B03000000000000F7
:1000E0000000000000000000000000000000000010
:1000F0000000000000000000000000000000000000
:1001000000000000000000000000000000000000EF
:1001100000000000000000000000000000000000DF
:1001200000000000000000000000000000000000CF
:1001300000000000000000000000000000000000BF
:1001400000000000000000000000000000000000AF
:10015000000000000000000000000000000000009F
:10016000000000000000000000000000000000008F
:10017000000000000000000000000000000000007F
:10018000000000000000000000000000000000006F
:10019000000000000000000000000000000000005F
:1001A000000000000000000000000000000000004F
:1001B000000000000000000000000000000000003F
:1001C000000000000000000000000000000000002F
:1001D000000000000000000000000000000000001F
:1001E000000000000000000000000000000000000F
:1001F00000000000000000000000000000000000FF
:1002000010B5054C237833B9044B13B10448AFF350
:1002100000800123237010BDFC01002000000000BD
:10022000703700000C4B43B10C480D4910B5AFF3CB
:1002300000800C48036823B910BD0A48036833B92D
:100240007047094B002BF7D0BDE810401847064B0C
:10025000002BF5D0184700BF0000000070370000E9
:1002600000020020F801002000000000154B002BC8
:1002700008BF134B9D46A3F5803A00218B460F46DD
:100280001348144A121A03F0A6F80F4B002B00D0A3
:1002900098470E4B002B00D0984700200021040007
:1002A0000D000D48002802D00C48AFF3008003F089
:1002B00043F82000290002F0C9FD03F029F800BF2F
:1002C0000000080000000120000000000000000005
:1002D000FC010020C0080020000000000000000019
:1002E0000649074A074B9B1A03DD043BC858D05008
:1002F000FBDC02F027FEFFF7B9FF0000E837000043
:1003000000000020FC010020FEE7FEE7FEE7FEE71C
:10031000FEE7FEE7FEE7FEE7FEE7FEE7F0B595B095
:10032000002415460F4608461E4601F0E9F93846F6
:1003300023460822089505A91A9D09960D950A9449
:100340008DF82C400C9401F037FA9DF81430079882
:1003500006998DF8114003F00302012A02900391DF
:1003600028D0022A04D0384601F0CEF915B0F0BDED
:10037000BDF81650C3F3C2038DF81030C5F38915CC
:100380000826082D2C4628BF0824334622460EA9ED
:10039000384601F011FA2D1B214608AB02AA0EA81F
:1003A000264400F091FC002DEBD1384601F0ACF969
:1003B00015B0F0BDBDF81460059DC6F38316C3F3F8
:1003C000C204B2000EA9384608238DF81040C5F3C8
:1003D000952501F0F1F908AB0093324628460EA9A5
:1003E00002AB00F0CBFBBEE7014B01221A70704755
:1003F0005C020020704700BF00B583B0044B00933F
:10040000044A4023FFF78AFF03B05DF804FB00BFF6
:10041000190400001C02002038B50E480E4D037868
:100420000E4CEB5C00252570D2B253B90C3002F0B3
:100430005FF958B90A4B1B7813B12378002BFCD015
:1004400038BD043002F0A6FB0028F3D000F0EAFC2F
:10045000F0E700BF00000020BC0800205C02002084
:100460001802002070B51348134A0378D35C88B093
:10047000DBB90C3002F0D6F8104D0FCD6C460FC42E
:1004800095E80F0008AD062645F8206D84E80F00BA
:1004900029460022074801F08BFA08B100F0C2FC9F
:1004A000074B00221A7008B070BD043002F00AFB3E
:1004B000E2E700BF00000020BC0800202C34000050
:1004C0001802002070B50D4D0FCD88B06C460FC4DA
:1004D00095E80F0008AD062645F8206D84E80F006A
:1004E0002946074A074801F063FA08B100F09AFC70
:1004F000054B01221A7008B070BD00BF2C340000FB
:10050000E9030000000000201802002008B5FFF7F2
:10051000D9FF0421034800F0E9FA034B01225A7184
:1005200008BD00BFBC37000014000020F0B5334DFB
:1005300085B005F5836000F0F7FC05F2144000F08B
:10054000F3FC6B68AE6803EA0600C11C05EB810290
:1005500015F8214014F004040ED0117801F00301C5
:1005600001293BD0022903F1020700F1030126D043
:1005700005EB8102002CF0D105EB80005A1CC1680C
:100580000191324005EB820201F00301D268029230
:10059000012903F1020429D0022925D1BDF8063032
:1005A000BDF80A60C3F38913033304EB93041448C2
:1005B00000F0C8FC00B16C60304605B0F0BD538857
:1005C00007EB931306EA0300C11C05EB810215F843
:1005D000214004F00404002CBFD1CDE71188023380
:1005E000C1F383110B44EDE70026E0E7BDF80430CA
:1005F000BDF80A60C3F383131C44D8E7300300201E
:10060000440700200B4B0C4810B50022FF21C3F813
:10061000182499601A605A60C3F8142483F82024BF
:1006200001F024F8044610B9044801F015F92046F9
:1006300010BD00BF30030020CC3700006C34000038
:1006400021B9114B03EBC0000068704730B40F4A6A
:100650000D4C121BD2080CD00D4D2B88834210D0AC
:10066000002303E035F82310814205D001339A427C
:10067000F8D1002030BC704704EBC300006830BCE8
:1006800070472046FAE700BF74370000BC3700000F
:10069000FC010020094B013903EBC00003290BD8F2
:1006A000DFE801F002080604022070474079704735
:1006B00000797047042070470020704774370000AD
:1006C0002DE9F047914C94E80C009A4284B000F078
:1006D000B6800023C4F81834BFF34F8F6368A56851
:1006E00003EA0501CA1C04EB820614F82220500715
:1006F0001AD52768327802F00302012A43D0022A71
:1007000003F1020202D1738802EB931305EA03019D
:10071000D4F81804CA1C04EB820628B99F4238D9C1
:1007200014F822205207E5D404EB81015A1CC96851
:1007300001912A4004EB820201F00301D268029287
:10074000022903F1020828D001297CD0D4F81054E2
:100750003DB12B6828469B689847EB681D68002DC3
:10076000F7D16B486B4B6C49C01AC008000440F0CD
:10077000020000F0D7F860682368C01A18BF012093
:1007800004B0BDE8F08732880233C2F38312134409
:10079000BCE7676004B0BDE8F087BDF806305F488D
:1007A000C3F389194F46502FA8BF502767F38F1303
:1007B00007F10801ADF8063000F05AFF06460028A0
:1007C000C4D025EA080A0AF1010A00F099FF4FEAAD
:1007D0008A0A0023082201A9304600F0B7FF5745D6
:1007E0006ED9BAF1000F7AD13A4608234C49304607
:1007F00000F0ACFF09F1030708EB9707D4F81834B1
:10080000002B68D1D4F810545DB1EB685A793146A9
:1008100028461AB12B681B689847EB681D68002DA5
:10082000F3D1304600F070FF002000F043FBD4F815
:10083000183403B96760002000F044FB9BE70020F8
:1008400004B0BDE8F087BDF804303448C3F3831228
:10085000062A28BF0622911C62F389138900ADF88D
:10086000043000F005FF064600283FF46FAF00F0AB
:1008700047FF0023082201A9304600F067FFBDF8BA
:10088000043013F4707F3FD04FF0000A4FF0080996
:1008900005EA080103314B4604EB8101042230468E
:1008A00000F054FFBDF804300AF1010AC3F38313CA
:1008B00008F10107534509F10409B846E8D89DE756
:1008C00005EA0801033104EB81013A46082330466A
:1008D00000F03CFF8EE7304600F016FF4BE705EADC
:1008E00008010331A7EB0A0504EB810152463046AB
:1008F000EDB2082300F02AFF2A460AF1080308494E
:10090000304600F023FF75E7474677E730030020C5
:10091000A43700007437000078340000CC370000A2
:100920003C0300202DE9F843DFF8D890074600206B
:100930008846D9F8085000F0BDFAD9F80820D9F84F
:100940000430D9F80060134401339B1B012B55D8A8
:1009500009F21C440121204600F0CAFAFFF7E6FD27
:100960000146204600F0C4FA99E80A00D9F80820A8
:10097000134401335B1A012BECD901240A400332E2
:1009800044F004036FF3891349F822300231002048
:10099000C9F8001000F096FA0021194800F09CFAFE
:1009A00080F3100033192B4009EB8303000435401A
:1009B000033540EA1740D86019F8253067F3C503BE
:1009C00009F8253039F825306FF3891329F82530D7
:1009D00059F8252068F39F22134664F301036FF34F
:1009E000820349F8252009F8253099F820341BB1F5
:1009F000FFF766FE0028FBD1BDE8F8833146BCE76F
:100A00004C070020300300202DE9F047354C80468C
:100A1000002092468946A56800F04CFAA2686368F7
:100A2000276813440133DB1B022B59D804F21C4600
:100A30000121304600F05CFAFFF778FD01463046B0
:100A400000F056FA94E80A00A268134401335B1AD6
:100A5000022BEDD901260A40033246F0040366F367
:100A6000891344F8223003310020216000F02AFA73
:100A7000BB1C2B4004EB830300211B48C3F80CA0D4
:100A800000F02AFA80F31000BB192B4004EB83031B
:100A900000043D40033540EA1840D86014F8253082
:100AA00068F3C50304F8253034F8253066F389135C
:100AB00024F8253054F8252069F39F22134666F365
:100AC00001036FF3820344F8252004F8253094F8DD
:100AD00020341BB1FFF7F4FD0028FBD1BDE8F087FF
:100AE0003946B7E7300300204C07002030B4174DDB
:100AF000D5F8104400215CB1E3681A798A4204D128
:100B000016E0DB681A798A4212D01B68002BF8D1F4
:100B1000C3681971D5F8103493B1DA68C3681268E4
:100B20001A60D5F81034DB681860084630BC70478E
:100B300001310A29DFD14FF0FF31084630BC704740
:100B4000C5F81004C2681360EFE700BF300300204F
:100B500038B5094BD3F81044012583F820544CB123
:100B6000E3685D71236820465B689847E3681C680A
:100B7000002CF5D138BD00BF300300202DE9F0472F
:100B800084B01D460C9C002394F80C802373EB88E2
:100B900081460E461746002B3BD1297A05290FD0F6
:100BA0006B7A002B3DD1404BA88853F821A000213F
:100BB000FFF746FD524603463C49204600F034FA12
:100BC000062F0FD8DFE807F0484D535A0463390069
:100BD000F168B06896E80C00019100904946204603
:100BE00000F022FA2B7A052B05D06B7A5BB93049DD
:100BF000204600F019FA204600F00AFA84F80C802A
:100C000004B0BDE8F0872B4A2B49204600F00CFACF
:100C1000EDE7284A00922949294A204600F004FAC3
:100C2000BBE7A888FFF736FD264B234953F8202061
:100C3000204600F0F9F9297AB5E77069316996E83C
:100C40000C000390B068F76802918DE88100494676
:100C5000204600F0E9F9C5E74946204600F0E4F9EE
:100C6000C0E732684946204600F0DEF9BAE7494657
:100C700096E80C00204600F0D7F9B3E7B16896E893
:100C80000C0020460091494600F0CEF9AAE7B06872
:100C9000F768316996E80C0002918DE881004946B9
:100CA000204600F0C1F99DE700350000F434000053
:100CB00034360000E8340000F0340000D034000086
:100CC000C834000090340000082900D970472DE98D
:100CD000F04F1D46904600232A7B2B7385B0B8F851
:100CE0000630039207460E46002B6BD198F8081089
:100CF000052911D098F80930002B6BD13C4BB8F87E
:100D0000040053F821400021FFF79AFC22460346D5
:100D10003849284600F088F9DFF8F8B0DFF8F89095
:100D20000024A642494628463ED93A5D013400F0E7
:100D30007BF9082CF5D13049DFF8E090DFF8E0B01E
:100D4000284600F071F9002411E017F804A002F021
:100D500017FB50445946437813F0970F14BF52467F
:100D60002E222846013400F05FF9082C08D0A64254
:100D700049462846E9D8013400F056F9082CF6D146
:100D800098F80830052B02D098F80930A3B91B4910
:100D9000284600F049F9284600F03AF99DF80C3051
:100DA0002B7305B0BDE8F08F01345946284600F09A
:100DB0003BF9082CB5D1BEE7114A1249284600F08C
:100DC00033F9E4E70E4A00920F49104A284600F032
:100DD0002BF98BE7B8F80400FFF75CFC0C4B0949D2
:100DE00053F82020284600F01FF998F8081085E7EE
:100DF00000350000F4340000C03400003436000038
:100E0000E8340000F0340000D0340000C8340000A2
:100E100090340000BC340000B4340000FC34000006
:100E2000C434000000B585B000230390194601AA20
:100E300044F201000193029300F004F805B05DF85C
:100E400004FB00BF10B572B6FFF782FEFFF738FC57
:100E50000028FBD1104B114C1149E41AE40824047A
:100E600044F00100FFF75EFD0E4B1B68DB0700D569
:100E700000BE44F002000C49FFF754FDBFF34F8F52
:100E80000A490B4BCA6802F4E0621343CB60BFF31C
:100E90004F8F00BFFDE700BF74370000A43700008C
:100EA0006C350000F0ED00E07835000000ED00E06A
:100EB0000400FA0572B6024A1368013313607047E2
:100EC000EC070020034A1368013B136003B962B6C4
:100ED000704700BFEC07002000B550E8002F0B461C
:100EE00040E8003E9EF0000FF7D110465DF804FB8D
:100EF00000B550E8003F03EB010240E8002E9EF0F1
:100F0000000FF6D110465DF804FB00BF00B550E8B5
:100F1000003FA3EB010240E8002E9EF0000FF6D147
:100F200010465DF804FB00BF00B5012350E8002F18
:100F300042EA030E40E800E191F0000FF6D170465E
:100F40005DF804FB00B5002350E800EF0EEA030251
:100F500040E8002191F0000FF6D170465DF804FBE7
:100F6000B8B130B4416882680468521AD2B2531ED4
:100F70002160DBB242B101680A685C1E551C0D603D
:100F80001370E3B2FF2BF6D103680020187130BC58
:100F900070470E20704700BF70B504460020FFF771
:100FA00089FF236861681A688A4215D9511E196041
:100FB0002168A3680D680879268A12F8012CE46874
:100FC0005B1BDBB2984206FB024400D20B7100208F
:100FD000FFF778FF204670BD00240020FFF772FF66
:100FE000204670BD38B5054600200C46FFF762FF6D
:100FF0002A681368591C1160E9682A8A641AB4FBCC
:10100000F2F41C700020BDE83840FFF75BBF00BF62
:10101000826802B9704710B50446436901680069E7
:1010200098470023A36010BD0EB400B582B00399A9
:1010300029B102AA04AB42F8043D00F095F802B0D1
:101040005DF804EB03B070472DE9F84F1746B9423D
:10105000884606461D46DDF828B00B9A7DD30B4620
:101060004FF00109B3FBF7F39F4209F10109F9D9E8
:10107000A94538BFA94612F0010A02D1BBF1000F01
:1010800049D1B268012402E0013D07FB04F4012DBF
:10109000FAD8B8FBF4F18F42F7D9324D05E0B4FB32
:1010A000F7F4A4B1B8FBF4F1B268685C531CB36008
:1010B00033689854B26873689A4204FB1188EED37F
:1010C0003046FFF7A5FFB4FBF7F4002CEAD1BAF1E4
:1010D000000F16D0BBF1000F33D0CB4588BF2024C2
:1010E0003ED9B3683268591CB160D454B268736891
:1010F0009A420BF1FF3B06D2BBF1000F09D0D94554
:10110000EFD1BDE8F88F3046FFF782FFBBF1000F4B
:10111000F5D1BDE8F88F93071AD42024CB45B0D978
:10112000B2683368511CB1609C54B26873689A42CB
:101130000BF1FF3B07D2BBF1000FA3D0CB45F0D1A1
:10114000A0E7BDE8F88F3046FFF762FFB268F2E72C
:10115000002D0CBF30242024E0E74FF0010987E781
:10116000BDE8F88F88350000002900F06F822DE976
:10117000F04F064685B093460C460B780DE0B268FA
:101180003168501CB0608B54B26873689A4280F02A
:10119000D3802378002B00F0BA800134002B00F0BC
:1011A000B680252BEBD14FF00008234614F8012B15
:1011B0002D2A00F0BB80302A00F0BB802B2A00F0E3
:1011C000AD802A2A00F0BC80A2F13005E9B20929DD
:1011D00098BF013302D9A9E1A1F130051C4613F8EB
:1011E000012BA2F1300005EB8501092802EB41013A
:1011F000F2D92E2A00F0B080002701E014F8012F68
:1012000002F0FB03682BF9D0253A532A7AD8DFE89D
:1012100012F07A017900790079007900790079007B
:1012200079007900790079007900790079007900F6
:1012300079007900790079007900790079007900E6
:1012400079007900790079007900790079007900D6
:1012500079007900790079007900790079007900C6
:1012600079007900790079007900790079007900B6
:1012700079007900790079006A01790079007900B4
:1012800079007900790079007900790079005501B9
:10129000FC007900790079007900FC007900790080
:1012A0007900790079007900540079007900CA004A
:1012B0007900BA00790079006A01DBF80020131D7B
:1012C000CBF80030B368156831685A1CB2604FF033
:1012D0003002CA54B3687268934280F0A0813268C9
:1012E000581C7821B060D154B26873689A4280F07B
:1012F0009281002208230192294600931022304651
:10130000FFF7A2FE01342378002B7FF446AF337B36
:10131000002B40F0058105B0BDE8F08F234614F89E
:10132000012B2D2A48F004087FF445AF48F001084E
:101330003BE748F0020838E73046FFF769FE28E748
:10134000DBF80020111DCBF8001015685A782E2A02
:1013500003F101047FF450AF6278A2F13003092B4E
:1013600004F101044FF000073FF64AAF07EB87078F
:1013700002EB470714F8012FA2F13003092BA7F164
:101380003007F3D93CE7DBF800301A1DCBF800201A
:101390001968CDF804803B4600950A223046FFF7D5
:1013A00053FE0134AFE7DBF800301A1DCBF8002004
:1013B00018F0010FD3F8009040F0BB80B9F1000F96
:1013C00000F04781484602F00EF80746BD4240F261
:1013D000F180002D00F0EE804FF0200805E0BD42C6
:1013E00000F0E880002D00F0E580B3683268591CF9
:1013F000B16002F80380B26873689A4205F1FF3564
:10140000EDD33046FFF704FEE9E7DBF800301A1DA4
:10141000CBF80020D3F8009089EAE973A3EBE973D5
:10142000092B4FF0010A09DD8F4A82FB0312DB17FB
:10143000C3EBA203092B0AF1010AF5DCBA4538BF58
:10144000BA462DB3B9F1000F02DB18F0040F00D03B
:10145000013D18F0020F40F0F58018F0010F17D190
:10146000002D00F0FE80AA4538BF202110D2B268BE
:101470003368501CB0609954B26873689A4205F1A1
:10148000FF3580F0E880002D00F0EB80AA45EED11A
:10149000B9F1000FC0F2C88018F0040F7BD108F03A
:1014A0000303022B00F09A808DE820013B46494659
:1014B0000A223046FFF7C8FD013424E7DBF800209C
:1014C000131DCBF80030B36831681278581CB06037
:1014D000CA54B26873689A42FFF414AF3046FFF7FB
:1014E00097FD01340FE7DBF800301A1DCBF8002020
:1014F0001968CDF804803B46009510223046FFF76E
:10150000A3FD0134FFE6B3683268591CB1604FF0A7
:101510002501D154B26873689A42DFD20134F2E6F1
:10152000304605B0BDE8F04FFFF772BD1C46002500
:101530005FE64F46A7EB090817F8013B8BB1B2688D
:101540003168501CB0608B54B26873689A42F1D312
:101550003046FFF75DFDA7EB090817F8013B002BAC
:10156000EDD145457FF6CEAE202705E045453FF459
:10157000C9AE002D3FF4C6AEB3683268591CB160E5
:10158000D754B26873689A4205F1FF35EED33046FE
:10159000FFF73EFDEAE7B2683368501C2B21B060CC
:1015A0009954B26873689A42FFF479AF3046FFF7F6
:1015B0002FFD74E709F1FF3919F8013F002B3FF4C3
:1015C000A1AEB2683168501CB0608B54B2687368C9
:1015D0009A42F1D33046FFF71BFDEDE7002F7FF471
:1015E00063AF002D33D0AA45BFF45EAFB268336855
:1015F000511CB1604FF030019954B26873689A423F
:1016000005F1FF3503D215B3AA45EFD14CE73046BB
:10161000FFF7FEFCF7E73046FFF7FAFC69E63046D5
:10162000FFF7F6FCB3685AE6B2683368501C2D2108
:10163000B0609954B26873689A42C9F10009FFF426
:101640002EAFB3E7002F3FF423AF06E77047002526
:101650002AE74F46BAE630460391FFF7D9FC0399D3
:1016600011E7002514E700BF67666666FFF778BCE0
:101670002DE9F041B0F81080CF1CA8F104084744D0
:101680000646B7FBF8F7FFF787FC80B3FFB20025EB
:101690000123013F0446A0F80680066005714371EE
:1016A00028D0804609E06379AF4203F101036371FA
:1016B000C8F80000066080461CD03046FFF76CFC7E
:1016C00001350028EFD16679721E16D0234601300D
:1016D00082421B68FBD81F684EB1214600250C686A
:1016E00001353846FFF77EFCAE422146F7D1002097
:1016F000BDE8F0812046BDE8F0812768EDE700BF36
:1017000004300121FFF7F4BBF8B501210446043091
:10171000FFF7FCFBC0B200B1F8BD6679721E12D0B3
:101720002346013082421B68FBD81F68002EF3D08D
:10173000214600240D6801343846FFF753FCA642C9
:101740002946F7D1F8BD2768F2E700BF2DE9F84335
:10175000C78890F805E0154607FB0EFEEC18AEF1C1
:10176000040E1A1DA6458846B2FBF7F638BFAEEB4D
:10177000030507FB1621044616B1013E2468FCD17F
:101780007E1AAE4228BF2E469DB14FF00009081DBB
:10179000AD1B08EB09012044324601F011FEAF42B7
:1017A000B14424683E464FF0000128BF2E46002D6C
:1017B000EDD1BDE8F88300BF2DE9F843C78890F864
:1017C00005E0154607FB0EFEEC18AEF1040E1A1DDF
:1017D000A6458846B2FBF7F638BFAEEB030507FB1C
:1017E0001621044616B1013E2468FCD17E1AAE4291
:1017F00028BF2E469DB14FF0000904312144AD1B96
:10180000324608EB090001F0DBFDAF42B144246829
:101810003E464FF0000128BF2E46002DEDD1BDE819
:10182000F88300BF08B50020FFF744FBF1EE103A43
:1018300023F09F03E1EE103ABFF35F8F054B402288
:10184000C3F884210020FFF73DFB20BF40BF20BF2D
:1018500008BD00BF00E100E0826800239360826859
:101860001361826853618268D360826853608268C2
:101870001360704710B568B101280AD10C4C236978
:10188000A07033B10CCB0120226198472369002B53
:10189000F8D110BD064CA36801226270002BF8D06D
:1018A0000CCB0020A2609847A368002BF8D110BD94
:1018B000F007002010B50B4C237882B013B18520BF
:1018C00002B010BD08486360A3602361E36000F0CC
:1018D000AFF8019000F0BAF801980123237002B02C
:1018E00010BD00BFF00700207518000038B5154D79
:1018F000AB78044673B110B14368012098470020CB
:10190000FFF7D8FAEB680133EB600020BDE8384000
:10191000FFF7D8BA03F0FF00FFF7CCFA64B12A69E9
:1019200042B1944208D0134601E09C4204D01B68A7
:10193000002BFAD122602C61EB68002BE2D100F081
:1019400099F8DFE7F007002070B50A4A0A4B0678DD
:101950004568047AC06853F8213052F8211084B0E9
:1019600003908DF8006001958DF80840684698470F
:1019700004B070BD040800200808002070B50A4AB1
:101980000A4B067845688468C06853F8213052F8DD
:10199000211084B003908DF8006001958DF8084007
:1019A0006846984704B070BD04080020080800206D
:1019B000F0B51A4B06781A4D0C6991F81DC045F820
:1019C00026400746174803F806C040F826200C4674
:1019D00096460FCC89B06D460FC594E80F0085E898
:1019E0000F000496BCF1000F0BD0BEF1000F0E4AA1
:1019F000694607F1040008BF002200F077FF09B034
:101A0000F0BDBEF1000F094A694607F10C0008BF9E
:101A1000002200F03BFD09B0F0BD00BFBC08002073
:101A20000408002008080020491900007D19000062
:101A3000054A13790BB1852070470121106053715D
:101A400018461171704700BF0C080020084B1A6837
:101A5000D20706D40122C02183F80013C3F88021E5
:101A60001A604FF080430122C3F81825704700BF69
:101A700000E100E010B41349134B144A0020086041
:101A800083B0096801914FF080410220019CC1F8A8
:101A90000403D86840F08071D960146844F00103F1
:101AA0001360516853685B1AB3F50A5FFAD30649AD
:101AB000074B14600122C8601A6003B05DF8044B44
:101AC000704700BF04010040F0ED00E0001000E0AE
:101AD0000800004010B5144B1A6882B062B10021B2
:101AE000124A19601B68507900934FF0804101231E
:101AF000009CC1F8083390B10D4B1A686AB10022FE
:101B00001A601B6801934FF080420221074B019835
:101B1000C2F808131B680120984702B010BD116875
:101B200053718847E8E700BF000100400C0800201F
:101B300004010040014B1B68184700BF1408002037
:101B400038B50C4B984201D0002038BD00200D461E
:101B5000FFF7B0F9084B1C7924B10020FFF7B2F968
:101B6000112038BD012220461D601A71FFF7AAF925
:101B7000204638BD0020004014080020034B984246
:101B800003D1034B00221A601A71704700200040F5
:101B90001408002070B443791F4C204E03EB43051A
:101BA00046F82320655D15B1082070BC704790F998
:101BB00004308A78002B27DB03F1604303F561438F
:101BC0005201D2B283F8002390F9042053099B00FC
:101BD00003F1604303F56143012502F01F0205FA9A
:101BE00002F2C3F880211A6003680A88C3F8082546
:101BF00043790879C97803EB4303E218E554507040
:101C00009170002070BC7047054D03F00F03520126
:101C10001D44D2B22A76D7E71C08002020080020F5
:101C2000FCEC00E00368044A01211960437903EBEE
:101C300043030221D15470471C080020F0B54FF433
:101C400080350468214E8D40C4F848530468C4F8B8
:101C50000853447904EB4404344483B0647822F09C
:101C60007F42D4B1046801F5A87744F827200468BE
:101C7000D4F804E5AEEB02077245427902EB42026A
:101C8000164488BF07F1FF17B27888BF07F57F4772
:101C9000974208DA0D2003B0F0BD046801F5A8767C
:101CA00044F82620046823B90020C4F8445303B044
:101CB000F0BD5031890089B2002363506258036837
:101CC0000192019AC3F804530468EDE71C08002050
:101CD00010B5474BD3F80423D10384B003D5454A4C
:101CE0001168002945D1424BD3F80423920303D550
:101CF000414A116800294BD13D4BD3F804235403CA
:101D000003D53E4A1168002952D1394BD3F8042338
:101D1000100303D53A4A1168002959D1344BD3F83E
:101D20000423D10702D5D3F80021B2B9304BD3F840
:101D30000423920702D5D3F804210AB904B010BDD8
:101D40000022C3F804212F4AD3F80431019305205F
:101D50001368019A984704B010BD0022C3F800210F
:101D6000284AD3F80031029304201368029A984756
:101D7000DCE74FF480310020C3F84813214CC3F84E
:101D800008131060136803932368039A9847AAE71F
:101D90004FF400310024C3F848131A48C3F808135D
:101DA0001460136803930368039A01209847A3E71C
:101DB0004FF480210024C3F848131248C3F80813D5
:101DC0001460136803930368039A022098479CE702
:101DD0004FF400210024C3F848130A48C3F808133D
:101DE0001460136803930368039A0320984795E7E8
:101DF000004002404041024044410240484102400C
:101E00004C410240200800202DE9F041684B1A683F
:101E100088B0002A3CD1674F97F82E30002B45D16F
:101E2000654B1A68002A5ED1644B1C68002C6AD18D
:101E30007E699EB14FF000480125B6FA86F2930004
:101E400003F58C7303F1804101F5E04128FA02F2B9
:101E5000086826EA020620B9002EEED108B0BDE8D7
:101E6000F081A3F58C730C6083F00402096804917F
:101E7000C2F38002DB088DF819208DF818308DF838
:101E800014503B68049A05A89847002ED5D1E5E781
:101E90000022484F1A60196897F82E300091009977
:101EA000002B39D097F82F30002B4ED1444B1A68B5
:101EB000002AB5D000221A6097F82D0019687B8B94
:101EC000019184B2A34201994ED85FD0384B3D4A6C
:101ED000002119601B680293012302991360364B9D
:101EE0001A68002AA0D000221A6008A81B68039371
:101EF000022100F80C1D3B6803993A7498472F4B58
:101F00001C68002C94D000221A601B680593059B66
:101F10003A7408B0BDE8F081FA68786839898DF8BC
:101F200014300690ADF81C10002A2CD02648398BAE
:101F30007A600122FB607983398102603B6805A8E1
:101F40009847002387F82F3066E7FB68786839895F
:101F50008DF814200690ADF81C10A3B1398B7B606E
:101F6000FA6079833981E9E73A897968164D1B1B54
:101F70009BB292B2D21A01EB42027B83C5F82C26A7
:101F8000C5F83006A2E700233B74D7E7FB684BB1E6
:101F90000D497A83012287F82F20C1F82C36C1F829
:101FA000300693E701227B8387F82F208EE700BF5E
:101FB000047100402408002010710040147100409A
:101FC000007100400470004000700040214B93F805
:101FD0002C200AB108207047F0B51F4C0578196015
:101FE000C4F8F05545781D49C4F8F4556FF0004524
:101FF0001A74C678C4F8085383B00A600968184D8B
:10200000019101992A60817883F82E602D68154826
:102010000095490183F82D205A6183F82F208025EF
:10202000C9B202270122F6B2DDF800E083F82C20C5
:1020300080F80713C0F880510560C4F804730EB12E
:10204000C4F80423044B01220020C3F8002503B088
:10205000F0BD00BF24080020007000400471004063
:102060000071004000E100E02F4A137C0BB1112009
:102070007047F0B50C79012C4FD900F10C0502EB3B
:1020800045031B79002B3DD04B788E780F7891F863
:1020900003E01B01360206F4E06603F0300333432D
:1020A00007F003064F794FEA0E3E33430EF4805E8D
:1020B0008E793F0507F4801743EA0E033B4336064B
:1020C0001A4F06F08076240402EB450204F4E02463
:1020D000334307EB00150001CE791671234300F15D
:1020E00080400C7A547100F5E040C5F81835CB7982
:1020F0000A7AC0F81425C0F810350B79012B07D9DE
:102100000020F0BD92F82D30013382F82D30BBE76E
:102110000123C7F800350020F0BD03F0FF05034B95
:10212000C3F800550C79A8E724080020007000408F
:10213000F0B42C4A2C4B1224C2F808431D7C022D0B
:1021400082B01CD01C7C012C1FD093F82E4058600C
:10215000022701250026C2F804731D74DE60198170
:10216000E4B9224BC2F82C06C2F830161C601B687A
:102170000193019B1560204602B0F0BC704711200E
:10218000C2F8044302B0F0BC7047DC688CB1022393
:102190001120C2F8043302B0F0BC704793F82D4010
:1021A000C2F82C0630465983C2F8304602B0F0BC63
:1021B000704793F82E20D86019836AB90B4A1368C8
:1021C000002BFCD0002313601268064B0092009A8B
:1021D000C3F82C06C3F83016024B0222C3F80423BE
:1021E0000020C9E700700040240800200071004072
:1021F000084A137CDBB2012B01D00820704792F80B
:102200002E0010B9044A13607047044A002013607E
:10221000704700BF24080020047000400070004098
:102220000C4A137C0BB11120704730B403F0FF004F
:10223000094B0A4C0A490225157482B018601B68C4
:102240000193019D10220123C4F804230B6002B006
:1022500030BC70472408002010710040007000401E
:102260000C70004014490B7C13B370B4134B144C26
:10227000144800221A6083B01B68019320250123B3
:10228000019EC4F8045303600B7C022B11D042F270
:10229000107301E0013B02D00A7C002AFAD0084A00
:1022A00000232020C2F808034B60CB6003B070BC51
:1022B00070470A74F3E700BF24080020147100403F
:1022C000007000400870004030B56E4AD2F8043308
:1022D00099058BB05BD5D2F82431002B57D0002361
:1022E000C2F82431D2F8243103934FF40171664BC4
:1022F0000398C2F8081393F8291009B90121516015
:10230000604902228DF81820D1F88024C1F8802479
:102310009869D96809920022089007919A6193E818
:102320001200DA6106A8A047564AD2F81C31C3B1A0
:10233000554B186A5969884265D293F8280000F015
:10234000FF0400285FD1C2F81C41D2F81C11029191
:1023500002999C68186A196A205C01311962C2F8F6
:102360001C05484AD2F844317BB10021464BC2F8E3
:102370004411D2F8440193F829100090009809B153
:10238000012111609A69002A52D10BB030BD3D4A3B
:10239000D2F804335B07C7D5D2F80831002BC3D07D
:1023A000394B9969002952D00021C2F80811D2F89E
:1023B000081104910499D868596AD2F81825425432
:1023C0005A6A996901325A625A6A8A42ACD1DA6908
:1023D000002A45D193F8292012B92A4A01215160D7
:1023E000284A4FF40171C2F80813596ADA68089153
:1023F0000024012007928DF8180093E806009C61E4
:1024000006A8904790E71F4A0020C2F81C01D2F8A6
:102410001C210192019A0029A3D09A688DF8180016
:1024200008915861079206A893E80600904798E73C
:102430000022586AD9689A610122089007918DF8A4
:10244000182006A893E8060090470BB030BDC2F8EC
:102450000811D2F8080105900598D2F81825B3E7BD
:10246000DD685C6A18699A6101210022D860DA612E
:102470005A628DF818100795089493E8060006A88C
:10248000904751E700200040540800202DE9F0411A
:10249000604E05792C2303FB056382B093F82A3044
:1024A0001BB1082002B0BDE8F0810F4604465A492E
:1024B00000689046FFF744FB18B1112002B0BDE858
:1024C000F0813A68511C0BD04FF0A041012393409A
:1024D000C1F808353B6803F5E073032241F8232077
:1024E0007B685A1C06D003F5E0734FF0A042002130
:1024F00042F823102368BA69C3F82425397D7B7D0F
:1025000022680B43C2F86C3597E806002368C3F8CD
:102510001425C3F80C153B7D012B51D02C2303FB54
:1025200005F3F218C2F804803A69F250B8F1000FCE
:1025300035D023683A7F394F0021C3F81C11D3F8F6
:102540001C3100932368DDF800E0C3F84411D3F890
:102550004411236801910199C3F804732168090BA0
:102560004BB2002B4EDB03F1604303F56143520194
:10257000D2B283F800232268120B42F3C40323F083
:10258000604323F0030303F1604303F5614302F06A
:102590001F02012101FA02F2C3F880211A602C23E4
:1025A000246803FB0563002204250121C4F80055BB
:1025B00083F82A109A61DA6183F829205A6171E759
:1025C000BB68591C06D003F5E0734FF0A042002110
:1025D00042F82310FB685A1C0DD001224FF0A04195
:1025E00002FA03F3C1F80835FB6803F5E073032230
:1025F00041F82320FB682268B968C2F80835C2F8A0
:1026000010158BE7064B01F00F0152010B44D2B2BB
:102610001A76B0E754080020C922000080000200AA
:10262000FCEC00E0F8B52F4D047902682C2303FB85
:10263000045300215B68C2F8001583B103682A4A7D
:10264000C3F808230368294E1B0B5AB252092032E3
:1026500003F01F03012101FA03F346F82230036857
:102660004FF0FF32D3F80CE5D3F81475D3F8081502
:10267000D3F81065C3F81425C3F80C2503689645F4
:10268000C3F80825C3F8102506D00EF5E07E4FF0FC
:10269000A043022243F82E207B1C06D007F5E077EA
:1026A0004FF0A043022243F82720721C06D006F503
:1026B000E0764FF0A043022243F826204B1C06D0C0
:1026C00001F5E0714FF0A043022243F82120006899
:1026D000FFF754FA2C2303FB0454002384F82A3018
:1026E0006360F8BD540800208402020000E100E0AD
:1026F000F0B5304E05792C2303FB056385B05C698A
:1027000014B1112005B0F0BD1C62996083F8284017
:102710005A610268C2F81C41D2F81C110268029189
:102720000121029F91600268D3F808E0C2F81C41C1
:10273000D2F81C1101910199D3F820C0196A5F6881
:102740001EF80CC001311962C2F81CC517B1204631
:1027500005B0F0BD1A6A5C690168944203D819E0BB
:1027600093F82820F2B9D1F81C21002AF8D0C1F83A
:102770001C71D1F81C210392039AD3F820C01A6A65
:102780001EF80CC001321A62C1F81CC51A6AA242B6
:10279000E9D30168D1F81C31002BFBD00123CB60B9
:1027A000002000E00F202C2303FB056300225A6168
:1027B000A8E700BF5408002070B54A4BD3F8242185
:1027C00088B0002A55D1D3F81011F1B9454BD3F890
:1027D000442152B10020444AC3F84401D3F8444193
:1027E00091690194019C002960D13E4BD3F82021CE
:1027F0004AB100213C4AC3F82011D3F82041506966
:102800000094009C30BB08B070BDC3F81021D3F811
:1028100010113548039103998169D3F83C458C42E6
:10282000D4D1C569002D50D0D3F80012C668856197
:1028300021F02001C3F800120369C261012201687E
:10284000C3608DF81840436805968DF8102004A8E1
:102850009847BBE7D3F84C0593688DF818008DF8BE
:1028600010105161059304A892E80A00984708B037
:1028700070BD0021C3F82411D3F824210292022252
:102880008DF81020029AD3F88004174AC3F8800408
:102890000790D3F83C05D3688DF818009161D16199
:1028A00005931168536804A898478FE7D3F83C450F
:1028B0008DF81840D368906101240593116853681E
:1028C0008DF8104004A898478FE7C36801688561B8
:1028D000012205938DF8184043688DF8102004A854
:1028E000984773E700200040800800202DE9F0435E
:1028F0000479704EE7003B1906EB830385B093F82B
:1029000020301BB1082005B0BDE8F083894605469C
:10291000694900689046FFF713F918B1112005B016
:10292000BDE8F083D9F80020511C0CD04FF0A04135
:1029300001239340C1F80835D9F8003003F5E0735E
:10294000032241F82320D9F804305A1C06D003F59D
:10295000E0734FF0A042002142F823102B68D9F811
:102960001820C3F8242599F8141099F815202B681D
:102970000A43C3F86C252A68D9F80030D9F8041046
:10298000C2F80C35C2F8141599F81430012B61D037
:102990003A199200B318C3F80480D9F81030B35034
:1029A000B8F1000F47D0296899F81C20DFF810E132
:1029B0000023C1F81031D1F8101100912968DDF819
:1029C00000C0C1F82031D1F8201101912968DDF84B
:1029D00004C0C1F82431D1F8241102912968DDF82E
:1029E00008C0C1F84431D1F844112B680391039910
:1029F000C3F804E32968090B4BB2002B51DB03F148
:102A0000604303F561435201D2B283F800232A6880
:102A1000120B42F3C40323F0604323F0030303F1DA
:102A2000604303F5614302F01F02012101FA02F243
:102A3000C3F880211A603C442A6806EB8404002312
:102A40000125082184F82050C2F80015A361E36134
:102A5000636158E7D9F80830591C06D003F5E073D4
:102A60004FF0A042002142F82310D9F80C305A1C34
:102A70000FD001224FF0A04102FA03F3C1F808354C
:102A8000D9F80C3003F5E073032241F82320D9F87C
:102A90000C302A68D9F80810C2F80835C2F81015A9
:102AA00076E7064B01F00F0152010B44D2B21A76C1
:102AB000ADE700BF80080020B9270000FCEC00E073
:102AC00010030200F8B506792F4C0268F500AB1927
:102AD00004EB830300215B68C2F8001583B103682F
:102AE0002A4AC3F808230368294F1B0B5AB252091C
:102AF000203203F01F03012101FA03F347F82230CB
:102B000003684FF0FF32D3F80CC5D3F814E5D3F8BF
:102B10000815D3F81075C3F80C25C3F814250368FD
:102B20009445C3F80825C3F8102506D00CF5E07CC1
:102B30004FF0A043022243F82C20BEF1FF3F06D005
:102B40000EF5E07E4FF0A043022243F82E207A1CBF
:102B500006D007F5E0774FF0A043022243F8272084
:102B60004B1C06D001F5E0714FF0A043022243F860
:102B70002120354404EB85040068FEF7FFFF0023A5
:102B800084F820306360F8BD800800201003020044
:102B900000E100E001F06043B3F1005F01D01020DC
:102BA0007047F0B50579214EEF007C1906EB8404DF
:102BB00083B0636913B1112003B0F0BDA1606261FD
:102BC000D0F800E0CEF82031DEF820C1D0F800E0E7
:102BD000CDF804C0DDF804C0CEF85831DEF858C195
:102BE000D0F800E0CDF800C0DDF800C0CEF8441504
:102BF000CEF8482502680121916062680AB1184642
:102C0000DAE7036800E079B9D3F82021D3F8581146
:102C1000002AF8D0002914BF0F2000207B1906EBF2
:102C2000830300225A61C7E70F20F7E780080020DE
:102C30002DE9F8430378002B40D14FF0A041054621
:102C4000D1F80425DFF80C81DFF80C91D04300F4B3
:102C5000802002F48022C1F80805C1F80C25D8F8BC
:102C60000020A3F13333A3FB02139B0803EB830380
:102C70009A4230D0304B314E3149F61AF6083604BC
:102C800046F003063046FDF7BFFE2B8963B12D4F9A
:102C900000246B68394633F914203046FDF7B4FE42
:102CA0002B8901349C42F4DB99F8003053B1D8F8F9
:102CB00000300133C8F80030BDE8F883022B12D091
:102CC000BDE8F88368680421FFF732FA0028EED0E7
:102CD000FEF7A8F8EBE7FFF7C5FA0123D8F80020C4
:102CE00089F80030C6E74FF0A0420421D2F804353D
:102CF0001548DC4304F4002403F40023C2F808451B
:102D0000C2F80C35FFF714FA80B904210F48FFF719
:102D10000FFA70B9084B09480D49C01AC0080004E1
:102D200040F00300BDE8F843FDF7FCBDFEF77AF87C
:102D3000EBE7FEF777F8EDE774370000A437000003
:102D40002036000038360000A8080020B008002017
:102D500040360000A4080020B808002000B17047E9
:102D600038B54FF0A0450446FFF742FAD5F80425E0
:102D70000C482146D44304F4003402F40032C5F870
:102D800008450123C5F80C250822FEF757FF18B99E
:102D9000054B01221A6038BDFEF744F8024B0122B0
:102DA0001A6038BD183600000840024010B584B0E3
:102DB0000120022306228DF8030020498DF80030FF
:102DC00068468DF801308DF80220FFF7FFF890BBC0
:102DD000002302240122184601A98DF807308DF83E
:102DE00006308DF809308DF80C308DF804308DF8F0
:102DF00005308DF808408DF80B20FFF735F9B8B98C
:102E00000F4A1048D2F8183543F08073C2F81835CD
:102E10000421FFF78DF940B904210B48FFF788F929
:102E200008B1FDF7FFFF04B010BDFDF7FBFFF3E7AE
:102E3000FDF7F8FFE4E7FDF7F5FFC9E7312C0000E7
:102E400000700040A8080020B008002070B50023E2
:102E500082B001204FF0A041032204E015F4F01FDE
:102E600018BF41F824200133202B00FA03F503F5A5
:102E7000E074F3D14FF0A0434FF0804200214FF4B3
:102E8000F0100124C3F80805C3F80C150846C2F871
:102E90007845FDF7B7FB0446FDF738FB14B1204633
:102EA000FDF7C0FF204B214D2149ED1AED082D04FF
:102EB00045F003052846FDF735FDFEF7FBFC08B19C
:102EC000FDF7B0FF0020FEF711FD02A940F2FF332D
:102ED00021F8083D174A1848FEF75CFE08B1FDF7D7
:102EE000A1FF0123082200211348FEF7A7FE08B125
:102EF000FDF798FF1048114C114EFEF793FEFFF7B7
:102F000055FF237843B131462846FDF70BFDFFF707
:102F100087F90028FBD12070FEF784FCFDF7D0FB79
:102F20000028FBD1EDE700BF74370000A437000094
:102F3000D43500005D2D000018360000B8080020D0
:102F4000F4350000F0B4B44B1A78062A20D0B34B05
:102F50001B68062B00F08A80B14AD2F8883043F40F
:102F60007003C2F88830BFF34F8FBFF36F8F4FF0FD
:102F70001023D3F80022002AC0F28A81D3F8043249
:102F8000002BC0F28581A74BA74A1A60F0BC70479E
:102F900004331B681807DAD1A44B1B6803F0F00256
:102FA000302A00F0658103F0E003402B00F06081DF
:102FB0009E4B1B6803F0F003302B00F01E819B4BEF
:102FC0001B6803F0F002302A00F0078103F0E003F1
:102FD000402B00F00281954B1B6803F0F003302B6F
:102FE00000F0EB80914B1B6803F0F002302A00F0F8
:102FF000D08003F0E003402B00F0CB808B4B1B68AC
:1030000003F0F003302B00F0B680884B1B6803F010
:10301000F003302B00F09880844B1B6803F0F00322
:10302000502B3FD0814B1B6803F0F002302A28D090
:1030300003F0E003402B24D07C4B1B6803F0F0022C
:10304000302A03D003F0E003402B80D14FF08043BF
:10305000D3F80024D2077FF57AAF6FF00102C3F8EE
:1030600000246E4B1B68062B7FF476AF704B1B68F9
:10307000062B7FF471AF6F4A136843F480631360CB
:103080006AE76D4B6D4A1B6803F04F031360624B98
:103090001B78062B7FF45BAF694B1B6818077FF426
:1030A00056AFC9E74FF08052664BD2F80414C3F80C
:1030B0002015D2F80814C3F82415D2F80C14C3F85C
:1030C0002815D2F81014C3F82C15D2F81414C3F82C
:1030D0003015D2F81814C3F83415D2F81C14C3F8FC
:1030E0004015D2F82014C3F84415D2F82414C3F8BC
:1030F0004815D2F82814C3F84C15D2F82C14C3F88C
:103100005015D2F83014C3F85415D2F83414C3F85B
:103110006015D2F83814C3F86415D2F83C14C3F81B
:103120006815D2F840143C48C3F86C15D2F8441422
:103130000278C3F87015062A7FF409AF404B1B686C
:103140001C077FF404AF6DE73F4E404C4049414BB4
:103150000527012500203F223760256008601A609E
:103160002D4B1B78062B7FF4F2AE354B1B681D07E9
:103170007FF4EDAE50E7284B374A1B780321062B2E
:1031800011607FF4E4AE2E4B1B681E077FF4DFAEA8
:103190003BE74FF080430022C3F80C21C3F8102115
:1031A000C3F838251C4B1B78062B7FF470AF244BDB
:1031B0001B681F077FF4CBAE20E72849164ACB686F
:1031C000127823F08073062ACB607FF4C0AE1C4BCC
:1031D0001B681B077FF4BBAE04E7214B0E4A1B683C
:1031E00012782049C3F34233062A0B60B8D1144B3E
:1031F0001B681A077FF4ABAEEDE6074B1A4A1B7843
:103200001A491160062B7FF4A2AE0D4B1B681907FB
:103210007FF49DAED3E600BFE00F00F03001001058
:1032200000ED00E01C0000200090D003E80F00F04B
:10323000340100103C17004058020010E40E00401A
:10324000E40F00F000C000401056004088560040D7
:103250001856004014560040A0050040F0ED00E074
:10326000440200103C05004074C007400DF0ADBAA8
:10327000204B214A1B6812782049C3F30423062AF5
:103280000B608FD11E4B1B6819073FF491AE5EE6B1
:103290001C4B0122C3F80425D3F80024002AFBD0DC
:1032A0004FF0102315221749C3F80022D1F800343B
:1032B000002BFBD04FF010221521124BC2F8041244
:1032C000D3F80024002AFBD000220E49C3F80425BD
:1032D000D1F80034002BFBD0BFF34F8F0A490B4BC2
:1032E000CA6802F4E0621343CB60BFF34F8F00BFA4
:1032F000FDE700BF24030010E00F00F0403501405F
:10330000E40F00F000E0014000ED00E00400FA05E9
:1033100008B5074B044613B10021AFF30080054BFD
:103320001868836A03B19847204600F071F800BF1F
:10333000000000006036000070B50D4E0D4CA41B5F
:10334000A4100025A54209D10B4E0C4C00F062F8E8
:10335000A41BA4100025A54205D170BD56F8253048
:1033600098470135EEE756F8253098470135F2E7E2
:10337000F0010020F0010020F0010020F401002005
:10338000044B054A1B681B6A002B08BF1346D3F881
:10339000EC007047200000208400002082B001B9BA
:1033A00001A942B14BB113780B601278101C18BF01
:1033B000012002B070471046FBE76FF00100F8E70C
:1033C00010B5431E0A44914200D110BD11F8014BC3
:1033D00003F8014FF7E702440346934200D17047D8
:1033E00003F8011BF9E7034613F8012B002AFBD170
:1033F000181A0138704749B1FF2A85BF8A23036034
:103400000A704FF0FF3098BF0120704708467047A0
:10341000FEE700BFF8B500BFF8BC08BC9E46704789
:10342000F8B500BFF8BC08BC9E467047FFFFFFFF21
:10343000FFFFFFFFFFFFFFFFFFFFFFFF0000000098
:10344000000000000000D60106010000F9030000A2
:1034500065040000F5030000756172745F6C6F67AE
:103460005F6261636B656E640000000054070020BA
:103470007F000000D40700204261636B656E6473B7
:1034800020666C75736865640000000061707000F0
:10349000E834000014350000C83400001C3500007A
:1034A000243500002C350000343500003C35000088
:1034B0004435000020253032780000002020200014
:1034C0007C000000256300001B5B313B33316D0045
:1034D00025734C6F67732064726F70706564202869
:1034E00025642925730D0A001B5B306D0000000068
:1034F000257300003C25733E2025733A2000000010
:10350000000000004C350000543500005C35000020
:10351000643500001B5B313B33306D001B5B313B7E
:1035200033326D001B5B313B33336D001B5B313B32
:1035300033346D001B5B313B33356D001B5B313B1E
:1035400033366D001B5B313B33376D006572726F34
:10355000720000007761726E696E6700696E666F57
:1035600000000000646562756700000046617461D8
:103570006C206572726F720053797374656D20727E
:1035800065736574000000003031323334353637EE
:1035900038394142434445467077725F6D676D74B8
:1035A00000000000636C6F636B000000434C4F43EE
:1035B0004B000000505253005254430053414144C9
:1035C0004300000055415254000000005541525440
:1035D000450000000A0D5341414443204C6F7720C1
:1035E000506F776572204578616D706C652E0D0A9D
:1035F0000000000053414144432063616C696272E2
:103600006174696F6E207374617274696E672E2EB7
:103610002E20200D0A00000000400240240004007B
:10362000414443206576656E74206E756D626572E7
:103630003A2025640D0A000025640D0A00000000F0
:1036400053414144432063616C6962726174696FE4
:103650006E20636F6D706C6574652021200D0A000B
:10366000240000204300504F534958002E000020F2
:103670002020202020202020282828282820202022
:1036800020202020202020202020202020202088D2
:103690001010101010101010101010101010100436
:1036A0000404040404040404041010101010101086
:1036B000414141414141010101010101010101017A
:1036C0000101010101010101010110101010101090
:1036D000424242424242020202020202020202024A
:1036E0000202020202020202020210101010200066
:1036F00000000000000000000000000000000000CA
:1037000000000000000000000000000000000000B9
:1037100000000000000000000000000000000000A9
:103720000000000000000000000000000000000099
:103730000000000000000000000000000000000089
:103740000000000000000000000000000000000079
:103750000000000000000000000000000000000069
:103760000000000000000000000000000000000059
:043770000000000055
:10377400AC35000000000000B4350000000000007B
:10378400B835000000000000BC3500000000000057
:10379400C435000000000000CC350000000000002B
:1037A4008C34000000000303A43500000000000076
:0837B400983500000000000040
:1037BC004C340000000000005834000014000020BD
:1037CC006002002028030020300300206802002043
:0437DC0018000000D1
:0837E0008CCAFF7F010000000C
:1037E8000000000000200040000000000020004011
:1037F8000000000000000000FF0000000090D0035F
:10380800240000200000000000000000000000006C
:1038180000000000000000000000000000000000A0
:103828000000000000000000000000000000000090
:103838000000000000000000000000000000000080
:103848000000000000000000000000000000000070
:103858000000000000000000000000000000000060
:10386800000000004300000000000000000000000D
:103878000000000000000000000000000000000040
:1038880000000000430000000000000000000000ED
:103898000000000000000000000000000000000020
:1038A80000000000430000000000000000000000CD
:1038B8000000000000000000000000000000000000
:1038C80000000000430000000000000000000000AD
:1038D80000000000000000000000000000000000E0
:1038E800000000004300000000000000000000008D
:1038F80000000000000000000000000000000000C0
:10390800000000004300000000000000000000006C
:10391800000000000000000000000000000000009F
:10392800000000004300000000000000000000004C
:10393800000000000000000000000000000000007F
:1039480000000000F73300009D3300000000000075
:103958006E3600006C3600006D3600006D360000D3
:103968006D3600006D3600006D3600006D360000C3
:103978006D3600006D3600006D360000FFFFFFFF5A
:10398800FFFFFFFFFFFFFFFFFFFF000001004153A4
:10399800434949000000000000000000000000004A
:1039A800000000000000000000000000000041537B
:1039B800434949000000000000000000000000002A
:1039C80000000000000000000000000000000000EF
:0C39D800250200000102000000000000B9
:04000003000002E116
:00000001FF
