:10000000000004208D1F0000B51F0000B71F000076
:10001000B91F0000BB1F0000BD1F00000000000052
:10002000000000000000000000000000BF1F0000F2
:10003000C11F000000000000C31F0000C51F00001A
:10004000990C0000C71F000075190000C71F0000B1
:10005000C71F0000C71F0000C71F0000F90F0000E6
:10006000C71F0000C71F0000C71F0000C71F0000F8
:10007000C71F0000C71F0000C71F0000C71F0000E8
:10008000C71F0000C71F0000C71F0000C71F0000D8
:10009000C71F0000C71F0000C71F0000C71F0000C8
:1000A000C71F0000C71F0000C71F0000C71F0000B8
:1000B000C71F0000C71F0000000000000000000074
:1000C000C71F0000C71F0000C71F0000C71F000098
:1000D000C10E0000C71F0000C71F0000C71F00009F
:1000E000C71F0000C71F0000C71F0000C71F000078
:1000F00000000000C71F000000000000000000001A
:1001000000000000000000000000000000000000EF
:1001100000000000000000000000000000000000DF
:1001200000000000000000000000000000000000CF
:1001300000000000000000000000000000000000BF
:1001400000000000000000000000000000000000AF
:10015000000000000000000000000000000000009F
:10016000000000000000000000000000000000008F
:10017000000000000000000000000000000000007F
:10018000000000000000000000000000000000006F
:10019000000000000000000000000000000000005F
:1001A000000000000000000000000000000000004F
:1001B000000000000000000000000000000000003F
:1001C000000000000000000000000000000000002F
:1001D000000000000000000000000000000000001F
:1001E000000000000000000000000000000000000F
:1001F00000000000000000000000000000000000FF
:1002000010B5054C237833B9044B13B10448AFF350
:1002100000800123237010BD80000020000000003A
:10022000542C0000084B10B51BB108480849AFF327
:1002300000800848036803B910BD074B002BFBD0B2
:10024000BDE81040184700BF00000000542C00001B
:10025000840000207C00002000000000154B002BD3
:1002600008BF134B9D46A3F5803A00218B460F46ED
:100270001348144A121A00F065F80F4B002B00D0F7
:1002800098470E4B002B00D0984700200021040017
:100290000D000D48002802D00C48AFF3008000F09C
:1002A0002BF82000290001F005FE00F011F800BF36
:1002B0000000080000000420000000000000000012
:1002C000800000205C06002000000000000000000C
:1002D00008B5074B044613B10021AFF30080054B6E
:1002E0001868836A03B19847204600F033F800BFCE
:1002F00000000000002A000070B50E4B0E4CE41AFE
:10030000A41000251E46A54204D056F82530984773
:100310000135F8E702F066FB084C094BE41AA4101B
:1003200000251E46A54204D056F8253098470135D1
:10033000F8E770BD740000207400002078000020F1
:100340007400002002440346934202D003F8011BCC
:10035000FAE77047FEE700BF0378012B04BF014AAC
:10036000137070479C0100202DE9F04FC5B09148F3
:100370004F9F16461C460D46002914BF4FF00A0B2E
:100380004FF0000B01F0EAFA002840F0E280002C68
:1003900000F0E38004AB02460193519B4F97FE1897
:1003A0002025104600EB0B03019A03933133D31839
:1003B00002931318BBF1000F60D05A4202F00302FF
:1003C0005A4528BF5A46BBF1060F00F2E5805A464F
:1003D0000199012A0D5403F1010100F0DB80022A8A
:1003E0005D7003F1020100F0D580032A9D7003F1D6
:1003F000030100F0CF80042ADD7003F1040100F056
:10040000C980062A1D7103F1050140F0CB805D71A2
:10041000991D9446934530D0C2EB0B09A9F1040E07
:100420000BF1FF3A4FEA9E0EC2EB0A0A0EF1010EE3
:10043000BAF1020F4FEA8E0814D90244019F4FF01F
:100440002030BEF1010F07EB020AB85006D0BEF112
:10045000020FCAF8040001D0CAF80800C845414498
:10046000C4440AD00CF1010293450D7005D90CF17A
:10047000020CE3454D7000D98D705B444E4A0299E1
:10048000D2F800804F9FDDF84091DA1C481C03F140
:10049000330C0CE002F8035C02F8025C02F8015C29
:1004A0000332624500F8015C00F1010033D0A6423E
:1004B000F0D9A74295BFE11B4E9919F80110095DCB
:1004C00002F8015C4FEA211E5FFA8EFABEF1090FB5
:1004D00001F00F0ED4BF0AF1300A0AF1370ABEF15B
:1004E000090F02F803AC94BF0EF1300E0EF1370E77
:1004F00008EB010A02F802EC9AF801E003321EF060
:10050000970F08BF2E21624500F8011C04F1010479
:1005100000F10100CBD1039A4F97029F274802F1C7
:1005200043080A210D223A7479744246019983F8EE
:10053000305001F01DFE5FFA88F21E481F4901F09D
:1005400053F930B91B4801F009FA10B9A6423FF639
:1005500029AF204645B0BDE8F08F35B304A82B681D
:10056000174A01904FF4807101F00EFE0028F0DB75
:100570000546304601F03AFE019BC22828BFC22042
:10058000024680463146581901F0F2FD08EB05039A
:100590001A4602E794463DE7002A7FF419AF194650
:1005A000944639E74FF0050C34E704AB2546019338
:1005B000DFE700BF64000020700000209C000020E6
:1005C000242A00002DE9F0415C48C6B00C461746CD
:1005D0001D4601F0C3F9002831D1002C33D006AEFE
:1005E0002368574A30464FF4807101F0CDFD002852
:1005F00025DB4C9B0446062B00F29E80DFE803F0CF
:100600007887915B6947050006AE2A1D92E80411C0
:1006100029692B686D6904950092039130193A4657
:10062000CDF80480CDF808C0C4F5807101F0ACFDB0
:100630000546002D03DB2C44B4F5807F18D900203B
:1006400046B0BDE8F0814C9B0024062B10D801A2D7
:1006500052F823F0F10600000D070000210700000A
:10066000B5060000D10600008D0600000906000056
:1006700006A92246334801F07BFDE2B22F483149FA
:1006800001F0B2F8B0FA80F04009D9E706AE6A6826
:10069000E9682B68D5F808C02D690395009202918E
:1006A00030193A46CDF804C0C4F5807101F06CFDF4
:1006B0000546BEE706AE6A68A9682B6800920191FC
:1006C00030193A46C4F5807101F05EFD0546B0E789
:1006D00006AE6A68A9682B68ED68029500920191E0
:1006E00030193A46C4F5807101F04EFD0546A0E789
:1006F000384601F07BFD0319FF2B054699D806AB60
:10070000394618192A4601F033FD92E706AE2B68E8
:1007100030193A46C4F5807101F036FD054688E788
:1007200006AE6A682B68009230193A46C4F58071AB
:1007300001F02AFD05467CE700257CE764000020E7
:10074000242A00009C000020F0B51A4F3B7889B0A5
:1007500006461BB1184B1B78834228D0174D0FCD8E
:100760006C460FC495E80F004FF0000E84E80F00B0
:100770000625052107224FF0EB7311480391082449
:1007800002928DF814E000950194069300F08EFF1C
:10079000002E0C4A0A4818BF0022694600F04EFE9F
:1007A00018B9054A012316703B7009B0F0BD00204E
:1007B00009B0F0BD9E0100209D010020042A000028
:1007C000640000205903000000487047C505000080
:1007D000004870476903000038B50020FFF7B4FFF8
:1007E000044668B9FFF7F0FF0546FFF7F1FF054B38
:1007F000FF22C3F810541C605C60C3F814049A60B4
:10080000204638BDA00100200120FFF79DBF00BF9A
:100810002DE9F041224C074600200E46A56800F065
:1008200071F9A2686368D4F8008013440133C8EBFF
:100830000303012B1BD8ABB10121002361F301039A
:100840006FF38203052161F3C50302EA080215492B
:1008500004EB82026FF3891308F1010561F39F2312
:100860002560D3600020BDE8F04100F053B908F1E5
:1008700001030020236000F04DF90122002362F300
:1008800001036FF3820308EA050567F3C50304EB70
:1008900085046FF3891366F39F23E360BDE8F0815D
:1008A000A00100202C2A00002DE9F843DFF8AC80DD
:1008B0000746002015460E46D8F8084000F022F9F9
:1008C000D8F80820D8F80430D8F800901344013341
:1008D000C9EB0303022B1CD8B3B10121002361F340
:1008E00001036FF38203052161F3C50302EA0902E4
:1008F000194808EB82026FF3891309F1010160F3D3
:100900009F23C8F80010D3600020BDE8F84300F032
:1009100001B909F102030020C8F8003000F0FAF82C
:100920000122002362F3010309EB02016FF382034A
:1009300009EA040967F3C5030C4008EB890962F36F
:10094000891308EB840866F39F23C9F80C30C8F8B4
:100950000C50BDE8F88300BF2C2A0000A001002045
:100960002DE9F0474C4E96E80C0093428AB070D0C7
:10097000B06804E0C4F3891202EB9452134400EA15
:100980000305023506EB85020133546814F00302B7
:10099000F0D0022A28D0C4F38312C4F3952C002A85
:1009A00075D00DF1100E75469F1803EA000106EB95
:1009B00081010133C96845F8041BBB42F5D100929F
:1009C000C4F3C20062467346D6F81044324D00218B
:1009D000A04738B177603068C01B18BF01200AB04B
:1009E000BDE8F0876F68F6E703F1010A20EA0A0123
:1009F0000340013106EB830389004FEA9458884590
:100A0000DA68DFF894E0C4F3891326D9A9B30AEAB7
:100A1000000C5FFA81F90EEB8C0CC9EB08010CF1AC
:100A20000C0C0EF10C00C9B202900391CDF800C07D
:100A3000CDF80490C4F3C2000021D6F81474B8476E
:100A4000404520D006EB850560F38F146C60776815
:100A5000C1E700200AB0BDE8F08700EA0A000EEB0B
:100A600080000C308DE801010021DEF814C40291F1
:100A70000391C4F3C200E047E2E70EF10C0C084614
:100A80005FFA88F9D0E703300AEB9007A2E71F4628
:100A90000DF1100E93E700BFA001002000B585B056
:100AA00000230390194644F2010001AAADF8043076
:100AB000029300F003F805B05DF804FB08B50120CF
:100AC0000C49FFF7A5FEFFF79FFEFFF749FF00283F
:100AD000FBD103200849FFF79BFEBFF34F8F074967
:100AE000074BCA6802F4E0621343CB60BFF34F8F39
:100AF00000BFFDE7382A0000482A000000ED00E0B2
:100B00000400FA0572B6024A136801331360704795
:100B1000B8050020034A1368013B136003B962B6AD
:100B2000704700BFB805002008B50020FFF7EAFFB6
:100B3000F1EE103A23F09F03E1EE103ABFF35F8F1E
:100B4000054B4022C3F884210020FFF7E3FF20BFBC
:100B500040BF20BF08BD00BF00E100E010B50C4C55
:100B600023780BB1852010BD0A4A6360E3601068EA
:100B7000A36010F00100236102D1072100F094F876
:100B80004FF080420123C2F818352370002010BDB9
:100B9000BC05002000E100E030B51B4DAB780446F9
:100BA00083B003F0FF0073B114B16368012098476C
:100BB0000020FFF7A7FFEB6800200133EB60FFF791
:100BC000A9FF03B030BDFFF79DFF64B12A6942B1B0
:100BD000944208D0134601E09C4204D01B68002BCD
:100BE000FAD122602C61EB68002BE4D1074A084956
:100BF0001360136801934FF0804202200123019C8F
:100C0000C2F804030B60D6E7BC05002004010040D5
:100C10000800004010B51D4B1A6882B0F2B91C4B99
:100C20001A680AB902B010BD00221A601B6801934D
:100C30004FF080430222174C0199C3F8082323691F
:100C40000122A270002BEDD01A6822615B6801209E
:100C500098472369002BF7D102B010BD00221A601B
:100C60001B6800934FF0804301220A4C0099C3F89F
:100C70000823A3686270002BD1D01A68A2605B6859
:100C800000209847A368002BF7D1C8E70001004077
:100C900004010040BC05002008B5FFF7BBFFBDE81C
:100CA000084000F029B800BF002810B418DB00F19C
:100CB000604303F561434901C9B283F80013C3B22D
:100CC0004009800000F1604000F5614003F01F0220
:100CD00001239340C0F8803103605DF8044B7047F6
:100CE000C3B2044A03F00F0449012244C9B2117689
:100CF000E6E700BFFCEC00E010B54FF08043D3F80E
:100D00000443620705D5D3F8082103F58473002A4C
:100D10003CD1A30603D5204B1A68002A30D16006C7
:100D200002D51E4B1A6822BB210602D51C4B1A683D
:100D3000CAB9E20502D51B4B1A686AB9A3050AD5E0
:100D4000194B1A683AB10021184A19601368022039
:100D5000BDE81040184710BD0021144A19601368FF
:100D600001209847EAE70020104A18601368984766
:100D7000DFE700210E4A1960136801209847D3E786
:100D800000200B4A186013689847C8E70021094AF9
:100D9000196013689847BCE714010040180100402F
:100DA0001C0100402001004024010040D00500202B
:100DB000D8050020D40500205AB1F8B54379114F69
:100DC000114D03EB430445F823203C5D1CB1082082
:100DD000F8BD0720704705460E4690F90400897853
:100DE000FFF762FF2B683288C3F808256B79F1782A
:100DF000357903EB4303FA180126FE5455709170C0
:100E00002046F8BDE0050020DC0500200368044A08
:100E100001211960437903EB43030221D154704748
:100E2000E0050020F0B54FF480350468234F8D4075
:100E3000C4F848530468C4F80853447904EB4404E4
:100E40003C4483B0647822F07F42D4B1046801F559
:100E5000A87644F826200468D4F804E5C2EB0E0610
:100E60007245427902EB42023A4488BF06F1FF160E
:100E7000927888BF06F57F4696421BDA0D2003B0B4
:100E8000F0BD046801F5A87644F82620026823B96D
:100E90000020C2F8445303B0F0BD5031890089B23C
:100EA00000235350525803680192019AC3F8045327
:100EB0000268EDE72246002BEAD0EEE7E0050020CD
:100EC00010B5474BD3F80423D10384B003D5454A6A
:100ED0001168002949D1424BD3F80423920303D56A
:100EE000414A116800294FD13D4BD3F804235403E4
:100EF00003D53E4A1168002956D1394BD3F8042353
:100F0000100302D53A4A1168F9B9354BD3F80423D6
:100F1000D10703D5D3F80021002A55D1304BD3F89F
:100F20000423920702D5D3F804210AB904B010BDF6
:100F30000022C3F804212F4AD3F80431019305207D
:100F40001368019A984704B010BD4FF400210024A3
:100F5000C3F848132748C3F80813146013680393B1
:100F60000368039A03209847CFE74FF480310020AD
:100F7000C3F848131F4CC3F8081310601368039399
:100F80002368039A9847A6E74FF400310024C3F87A
:100F900048131848C3F808131460136803930368D0
:100FA000039A012098479FE74FF480210024C3F85B
:100FB00048131048C3F808131460136803930368B8
:100FC000039A0220984798E70022C3F80021094AB3
:100FD000D3F80031029304201368029A98479DE7E2
:100FE000004002404041024044410240484102402A
:100FF0004C410240DC0500202DE9F041684B1A68A5
:1010000088B0002A3CD1674F97F82E30002B45D18D
:10101000654B1A68002A5FD1644B1D68002D6BD1A7
:101020007C699CB14FF000480126B4FA84F18B0032
:1010300003F58C7303F1804202F5E04228FA01F0D7
:10104000116824EA000421B9002CEED108B0BDE8F3
:10105000F0811560A3F58C731268049283F004018B
:10106000C1F38002DB088DF819208DF818308DF857
:1010700014603B68049A05A89847002CD5D1E5E791
:101080000022484F1A60196897F82E300091009995
:10109000002B3AD097F82F30002B4FD1444B1A68D1
:1010A000002AB5D00021196097F82D401A687B8B73
:1010B0000192A5B2AB42019A3A4A4ED85FD0384B62
:1010C0003C4A002119601B680293012302991360B6
:1010D000354B1A68002A9FD000221A6008A81B68A6
:1010E0000393022100F80C1D3B6803993A7498475A
:1010F0002E4B1D68002D93D000221A601B680593AB
:10110000059B3A7408B0BDE8F081FA6878683989BF
:101110008DF814300690ADF81C10002A2CD026480B
:10112000398B7A600122FB607983398102603B68E8
:1011300005A89847002387F82F3065E7FB68786893
:1011400039898DF814200690ADF81C10A3B1398BA5
:101150007B60FA6079833981E9E711895068164E1E
:101160005B1B9BB289B2C91A00EB41015383C6F8DD
:101170002C16C6F83046A2E700233B74D7E7D368A5
:101180004BB10D4851830121C0F82C3682F82F1045
:10119000C0F8304693E70121538382F82F108EE781
:1011A00004710040E40500201071004014710040FB
:1011B000007100400470004000700040F0B5234C06
:1011C00094F82C3083B013B1082003B0F0BD00298F
:1011D00039D01F4A1F4D2160002808BF10461E4A03
:1011E0000178C5F8F0154178C5F8F4156FF00041A5
:1011F0002374C778C5F8081313601168009100992B
:1012000042F8043C043A81781268019201260720D2
:1012100084F82D30636184F82F3084F82E70019BA0
:1012200084F82C60FFF740FD94F82E300222C5F8B8
:1012300004230BB1C5F80463064B01220020C3F858
:10124000002503B0F0BD0720BFE700BFE405002084
:10125000642A0000007000400471004038B5134B50
:101260001A7C0AB1112038BD00F10C0203EB4204D4
:10127000247924B993F82D40013483F82D4003EBF1
:101280004203CA791A710A7A5A7104460D4600F06F
:10129000EFFC200100F1804303F5E043EA79297A6D
:1012A000C3F81415C3F81025002038BDE40500204C
:1012B000F0B42D4A2D4B1224C2F808431D7C022D98
:1012C00082B01CD01C7C012C1FD093F82E4058609B
:1012D000022701250026C2F804731D74DE601981FF
:1012E000E4B9234BC2F82C06C2F830161C601B6808
:1012F0000193019B1560204602B0F0BC704711209D
:10130000C2F8044302B0F0BC7047DC688CB1022321
:101310001120C2F8043302B0F0BC704793F82D409E
:10132000C2F82C0630465983C2F8304602B0F0BCF1
:10133000704793F82E20D860198372B90C4C23683B
:101340000B4A002BFBD0002313601268064B00925F
:10135000009AC3F82C06C3F83016034B0222C3F8D8
:1013600004230020C8E700BF00700040E40500200F
:1013700000710040084A137CDBB2012B01D0082029
:10138000704792F82E0010B9044A13607047044A5F
:1013900000201360704700BFE40500200470004087
:1013A000007000400C4A137C03F0FF000BB11120C9
:1013B000704730B4094B0A4C0A490225157482B0B3
:1013C00018601B680193019D10220123C4F80423B7
:1013D0000B6002B030BC7047E40500201071004083
:1013E000007000400C70004011490B7CEBB110B450
:1013F000104B114800221A6083B01B68019301232F
:10140000019C03600B7C022B10D00B7C3BB142F2A1
:10141000107301E0013B02D00A7C002AFAD10023BC
:101420004B60CB6003B05DF8044B70470A74F6E77D
:10143000E40500201471004008700040F0B5047904
:10144000964E6401331987B0DD7E183315B108203C
:1014500007B0F0BD4D7F1D710B685F1C19D01F2BAD
:101460004FF001058ABF8E4F4FF0A04703F01F03D6
:1014700005FA03F3C7F808350B681F2B86BF03F086
:101480001F03874D4FF0A04503F5E073032745F890
:1014900023704B685D1C0BD01F2B86BF03F01F030E
:1014A0007F4D4FF0A04503F5E073002745F823700A
:1014B000037906EB43131B7F002B4DD003688D6926
:1014C000C3F824550F7D4B7D05683B43C5F86C354B
:1014D00003680F684D68C3F80C75C3F814550B7D8D
:1014E000012B00F0AC80331905465A600B696B483C
:1014F0003351EAB12B79097F2A6800EB4310037F4F
:10150000002B76D1C2F81C31D2F81C712A680197E1
:10151000019FC2F84431D2F844212B6861480092FF
:10152000009AC3F80403286840F30730FFF7BCFBB8
:101530002B792A6806EB43131B7F002B55D0082319
:10154000C2F80035344400200121E075A0752076F2
:10155000A076E17607B0F0BD03688D69C3F8245525
:101560000F7D4B7D05683B43C5F86C3591E8A000C5
:101570000368C3F81475C3F80C550B7D012BB2D169
:101580008B685F1C0BD01F2B86BF03F01F03444DDD
:101590004FF0A04503F5E073002745F82370CB68B2
:1015A0005D1C1BD01F2B4FF001058ABF3C4F4FF035
:1015B000A04703F01F0305FA03F3C7F80835CB680B
:1015C0001F2B88BF03F01F0303F5E0738CBF344D5E
:1015D0004FF0A045032745F82370CB6805688F6856
:1015E000C5F80835C5F810757DE70423C2F8003545
:1015F000A8E70023C2F81031D2F810712A680597C5
:10160000059FC2F82031D2F820712A680497049F00
:10161000C2F82431D2F824712A680397039FC2F8D4
:101620004431D2F844212B6802921F48029AC3F831
:101630000403286840F30730FFF736FB78E78B6830
:101640005F1C0BD01F2B86BF03F01F03144D4FF000
:10165000A04503F5E073002745F82370CB685D1CB7
:10166000BCD01F2B8ABF0E4F4FF0A04703F01F03C3
:10167000012505FA03F3C7F80835CB681F2B88BF8F
:1016800003F01F0303F5E0738CBF054F4FF0A04735
:10169000032547F82350CB68A0E700BF14060020BD
:1016A000000300508000020010030200F0B503792F
:1016B000484E01685B01F218127F002A00F0838017
:1016C0000022C1F80025F21842495268B2B10279ED
:1016D00001EB42110A7F002A78D102683E49C2F824
:1016E000081302683D4D120B51B24909203102F036
:1016F0001F02012404FA02F245F82120027907684A
:1017000006EB4212D7F80C55127FD7F814454FF06C
:10171000FF3E002A49D0D7F80825D7F81015C7F89A
:101720000CE5C7F814E50068C0F808E5C0F810E556
:101730006F1C0BD01F2D86BF05F01F0528484FF0EA
:10174000A04005F5E075022740F82570651C0BD018
:101750001F2C86BF04F01F0421484FF0A04004F561
:10176000E074022540F82450481C0BD01F2986BF86
:1017700001F01F011A484FF0A04001F5E07102246A
:1017800040F82140511C0BD01F2A86BF02F01F02D7
:1017900013494FF0A04102F5E072022041F8220007
:1017A00033440022DA765A60F0BDD7F80825D7F81E
:1017B0001015C7F814E5C7F80CE50068C0F808E58F
:1017C000C0F810E5B4E7C1F800257CE702680549D8
:1017D00085E700BF140600208402020000E100E05B
:1017E00000030050100302002DE9F04103795A4D27
:1017F0005B01EC1886B0247F44B101F06044B4F181
:10180000005F03D0102006B0BDE8F0812B44DFF864
:1018100048E19F7D1FB1112006B0BDE8F0819960BD
:101820009A759F82067976010EEB06010B7F2BBB22
:101830000268C2F81C31D2F81C41026805940124E8
:10184000059F94600468D1F808C0C4F81C31D4F82E
:101850001C310493049B8F8A8B8AD1F804E0BFB2B9
:1018600001331CF807709BB28B82C4F81C75BEF163
:10187000000F33D0002006B0BDE8F08103688A680D
:10188000C3F82071D3F8204103680294029CC3F886
:101890005871D3F85841036801948C7D019FC3F8B7
:1018A0004425C3F84845036801229A604B68002B21
:1018B000E0D1026801E0002B4CD1D2F82011D2F81F
:1018C0005831003318BF01230029F4D0002B0CBF7E
:1018D00000200F20AB1900229A7594E78F7D8B8A28
:1018E00001F110029BB2BB4226D2046804E0938847
:1018F0009BB2B3F5807F05D0D4F81C3101F1100202
:10190000002BF4D001F1100293889BB2B3F5807FD5
:10191000E5D0C4F81CE1D4F81C310393039BB2F862
:10192000048093881FFA88F801331CF808809BB262
:101930009380C4F81C85D2E793889BB2B3F5807F6F
:1019400008D00268D2F81C31002BFBD00123D360F1
:101950000020BFE70F20BDE7140600200279044BEA
:1019600003EB4213987D003018BF0120704700BF81
:1019700014060020F0B59B4C237F8FB0002B75D14F
:10198000994AD2F80413890548D4974BD3F8042315
:10199000520704D5D3F80821002A40F0CA80924BA0
:1019A000D3F81C21C2B1A28AA07D8E4992B2824294
:1019B0004FF00002C3F81C2180F0A980D3F81C214D
:1019C0000692069A888A8A8A8D6880B20132285CDB
:1019D00092B28A82C3F81C05834BD3F84421DAB152
:1019E0000022C3F84421D3F84411A27E0491049943
:1019F000002A40F08980E27D7A4B6AB10022587E4D
:101A0000D968DA7501228DF830000B918DF8282005
:101A10000AA893E8060090470FB0F0BDD2F8241151
:101A20000029B2D0C2F82431D2F82411A37E079144
:101A30004FF401710798C2F808130BB901235360E2
:101A4000694A02238DF82830D2F88034C2F88034F5
:101A5000E07DE2680D9300238DF83000E375237676
:101A600021680B9263680AA8984798E75E4BD3F801
:101A70002421002A40F09380D3F8101161B1C3F8FB
:101A80001021D3F8101103910399D3F83C15E07D90
:101A9000C9B2884200F0AA80534BD3F84421B2B1B6
:101AA0000022C3F84421D3F84411E07D019101994B
:101AB0004C4960B1D3F83C35C8688DF8303001230B
:101AC000CA750B908DF828300AA80AC99847464B6A
:101AD000D3F82021002A9FD00022C3F82021D3F878
:101AE0002011A07D009100993E49002894D0D3F8A0
:101AF0004C058B688DF830008A750B938DF8282083
:101B00000AC90AA8984787E701221A6073E7D3F841
:101B10001C310593059B00283FF45EAF8B688DF860
:101B200030008A750B938DF828200AC90AA89847B7
:101B300052E7E17D2B4A002970D00021C3F808113B
:101B4000D3F8081108910899D068517ED3F8183558
:101B50004354537ED17D0133DBB25376627E214BF9
:101B60008A427FF41CAF1A7E002A6DD19B7E13B986
:101B70001D4B01225A601C4AE06863684FF40171F2
:101B8000C2F80813627E8DF83020002501220B90E8
:101B90002168E5758DF828200AA89847FFE60022FD
:101BA000C3F82421D3F82411029102218DF82810C2
:101BB0000299D3F88014C3F880140D91D3F83C1522
:101BC000E368E27522768DF830100B932168636824
:101BD0000AA89847044BD3F84421002A3FF477AF72
:101BE0005EE700BF1406002000200040217EF1B116
:101BF000D3F80072E17527F02001E6682569C3F883
:101C0000001201238DF830008DF8283022762168EB
:101C10000B96E56063680AA898473DE7C3F808118A
:101C2000D3F808210992099AD3F8183596E7E268A3
:101C3000E17501238DF830008DF828300B9294E87F
:101C40000A000AA8984727E7DE685D7E1869DA75FA
:101C500001210022D8601A765A768DF828100B964A
:101C60008DF8305093E806000AA8904797E600BF29
:101C7000F0B54E788F7891F800E0CD780C794A79FC
:101C80008B7936013F0207F4E06706F030063E43E9
:101C90002D030EF003073E4305F48055240435431D
:101CA00004F4E024120506012C4302F480121B0602
:101CB00006F1804505F5E045224303F080731343A8
:101CC000C5F81835CB790A7AC5F81425C5F810354A
:101CD000F0BD00BFF8B50378054683BB4FF0A041C7
:101CE000314ED1F80425314FD04300F4804002F446
:101CF0008042C1F80805C1F80C253268A3F13333DE
:101D0000A3FB02139B0803EB83039A4223D0032017
:101D10002749FEF7C9FD2B89002453B16B6825497B
:101D200033F914200320FEF7BFFD2B8901349C42B8
:101D3000F4DB3B7833B1336801333360F8BD022BF9
:101D40000FD0F8BD68680421FFF7B2FA0028F2D07E
:101D5000FEF7A4FEEFE7FFF747FB012332683B7075
:101D6000D5E74FF0A0421448D2F80435D94301F426
:101D7000004103F40043C2F808150421C2F80C35F1
:101D8000FFF796FA50B90D480421FFF791FA40B9D0
:101D900003200B49BDE8F840FEF73ABDFEF77EFE92
:101DA000F1E7FEF77BFEF3E748060020440600203B
:101DB000702A0000902A0000340600203C06002013
:101DC000A02A000000B1704738B54FF0A045044686
:101DD000FFF7D0FAD5F804350C48DA4302F4005284
:101DE00003F40053C5F808252146C5F80C35082230
:101DF0000123FFF717F818B9054B01221A6038BD07
:101E0000FEF74CFE024B01221A6038BD682A000022
:101E10000840024010B584B002230124062268461F
:101E200020498DF803408DF800308DF801308DF891
:101E30000220FFF7C3F990BB0023022401221846B9
:101E400001A98DF807308DF806308DF809308DF82E
:101E50000C308DF804308DF805308DF808408DF881
:101E60000B20FFF7FBF9B8B90F4A1048D2F8183524
:101E700043F08073C2F818350421FFF719FA40B90E
:101E80000B480421FFF714FA08B1FEF707FE04B06F
:101E900010BDFEF703FEF3E7FEF700FEE4E7FEF7F2
:101EA000FDFDC9E7D51C000000700040340600208D
:101EB0003C06002030B5002383B04FF4F0304FF0E3
:101EC000A041032203E0ED0748BF41F8242001337D
:101ED000202B40FA03F503F5E074F4D14FF0A04352
:101EE0004FF080414FF4F03000220124C3F8080580
:101EF000C3F80C251046C1F87845FEF76DFC08B113
:101F0000FEF7CCFD03201C49FEF782FCFEF726FEFF
:101F100008B1FEF7C3FD0020FEF73EFE02A940F225
:101F2000FF3321F8083D1548154AFEF745FF08B173
:101F3000FEF7B4FD1148002108220123FEF772FFCD
:101F400008B1FEF7ABFD0D480E4CFEF75FFFFFF743
:101F500061FF237843B103200B49FEF759FCFFF7DB
:101F600021FA0028FBD12070FEF7DEFDFEF7F8FC19
:101F70000028FBD1EDE700BFCC2A0000682A000052
:101F8000C51D000044060020F42A00000649074A47
:101F9000074B9B1A03DD043BC858D050FBDC00F014
:101FA00013F8FEF75BF90000602C00000000002031
:101FB00080000020FEE7FEE7FEE7FEE7FEE7FEE723
:101FC000FEE7FEE7FEE7FEE770B45E4B1B68082BFA
:101FD00019D05D4AD2F8883043F47003C2F88830D3
:101FE000BFF34F8FBFF36F8F4FF01023D3F8002252
:101FF000002A75DBD3F80432002B71DB534B544AB3
:102000001A6070BC7047534B19680029E1D14FF03A
:1020100080404FF08052C0F80C114F4BC0F81011A7
:10202000C0F83815D2F80414C3F82015D2F80814F3
:10203000C3F82415D2F80C14C3F82815D2F81014DC
:10204000C3F82C15D2F81414C3F83015D2F81814AC
:10205000C3F83415D2F81C14C3F84015D2F8201474
:10206000C3F84415D2F82414C3F84815D2F828143C
:10207000C3F84C15D2F82C14C3F85015D2F830140C
:10208000C3F85415D2F83414C3F86015D2F83814D4
:10209000C3F86415D2F83C14C3F86815D2F840149C
:1020A000C3F86C15D2F844642C4C2D49C3F8706504
:1020B0002C4D2560FB23C1F81835D0F8E43ED2F84A
:1020C000581204F50F3423F00F0204F56D7401F07B
:1020D0000F0313434FF40072C0F8E43E226078E728
:1020E000214B0122C3F80425D3F80024002AFBD099
:1020F0004FF0102312221C49C3F80022D1F80034FB
:10210000002BFBD04FF0102312221749C3F80422F2
:10211000D1F80024144B002AFAD00022C3F8042579
:10212000D3F80024002AFBD0BFF34F8F06490F4B92
:10213000CA6802F4E0621343CB60BFF34F8F00BF65
:10214000FDE700BF3001001000ED00E06C00002052
:102150000090D0033401001000C000408C560040B5
:1021600000F000404881030000E001400400FA054F
:1021700010B5431E0A44914204D011F8014B03F8F4
:10218000014FF8E710BD00000CB430B5164B0C1E23
:102190009DB01D6804DA8B232B604FF0FF301EE0EA
:1021A0004FF40273ADF8143014BF04F1FF3323462B
:1021B000049307934FF6FF7302900690ADF8163024
:1021C000284621AB02A9209A019300F071F8431C24
:1021D000BCBF8B232B6014B1029B00221A701DB070
:1021E000BDE8304002B0704760000020034613F89D
:1021F000012B002AFBD1181A013870472DE9F0474E
:102200008E68B34282460C469046994640D38A89EE
:1022100012F4906F3AD0256809696F1A6569022334
:1022200005EB450595FBF3F57B1C4B449D4238BF00
:102230001D4653050FD5294600F030FB064698B1E0
:1022400021693A46FFF794FFA38923F4906343F092
:102250008003A38113E02A4600F076FB064670B99E
:102260005046216900F0D6FA0C23CAF80030A38941
:1022700043F04003A3814FF0FF30BDE8F0872661B3
:1022800065613E44ED1B2660A5604E46B14500D217
:102290004E4632462068414600F0A1FAA3689B1BD7
:1022A000A36023681E4426600020BDE8F08700007C
:1022B0002DE9F0439DB0064603938B891C060D461D
:1022C00090460CD50B6953B9402100F0E7FA28601D
:1022D000286110B90C233360CCE040236B610023EC
:1022E000099320238DF8293030238DF82A30434676
:1022F0001C4613F8012B1AB9B4EB08090FD002E001
:10230000252AF5D1F8E73046294642464B46FFF7E5
:1023100075FF013000F0A980099B4B440993237895
:10232000002B00F0A28000234FF0FF3204930793AC
:10233000059206938DF853301A9304F10108444630
:10234000DFF8489121784846052200F039FA08F173
:102350000108049B30B1C9EB000001228240134305
:102360000493ECE7D80644BF20228DF853201907C8
:1023700044BF2B228DF8532022782A2A02D00799B5
:1023800023460EE0039A111D12680391002ABBBF79
:10239000524243F0020307920792B8BF04930134FC
:1023A0000AE01C4601332278303A092A03D80A2071
:1023B00000FB0121F5E7079123782E2B1AD16378D2
:1023C0002A2B0AD1039B1A1D1B680392002BB8BF4E
:1023D0004FF0FF33023405930CE0611C00220C46E1
:1023E00001312378303B092B03D80A2000FB02324D
:1023F000F5E70592DFF8988021784046032200F047
:10240000DFF938B1049AC8EB00004023834013433E
:102410000493013421781A488DF82810062204F11B
:10242000010800F0CDF988B1164B33B9039B07338F
:1024300023F007030833039313E003AB0093304604
:1024400004A92A46104BAFF3008007E003AB0093CA
:10245000304604A92A460C4B00F092F8421C07466D
:1024600003D0099B3B44099341E7AB895B0601D448
:10247000099801E04FF0FF301DB0BDE8F08300BFC8
:102480002B2C000000000000FD210000212C00008A
:10249000272C00002DE9F84391461F468A680B69F6
:1024A000DDF820809342B8BF1346C9F8003091F898
:1024B000432006460C4612B10133C9F800302368A8
:1024C000990642BFD9F800300233C9F800302568B8
:1024D00015F006051CD094F843302268003318BF6D
:1024E000012392061FD5E1185A1C302081F84300C1
:1024F000224494F8451082F84310023313E030462A
:10250000394604F119020123C047013007D00135D3
:10251000E368D9F800209B1A9D42F0DBDBE74FF01F
:10252000FF30BDE8F8833046394604F14302C04726
:102530000130F4D02268D9F80050E36802F00602B6
:10254000042A08BF5D1B2269A3680CBF25EAE57554
:1025500000259342C4BF9B1AED184FF00009A9450E
:102560000ADA3046394604F11A020123C047013025
:10257000D5D009F10109F2E70020BDE8F883000099
:102580002DE9FF410C461746227E6E2A98460646E4
:102590000A9B01F1430100F0AF8012D8632A23D0D7
:1025A0000AD8002A00F0BC80582A40F0CB8084F87A
:1025B0004520DFF804E257E0642A1ED0692A1CD0C7
:1025C000C0E0732A00F0B08009D86F2A2ED0702A9C
:1025D00040F0B880226842F0200222603FE0752A75
:1025E00024D0782A3BD0ADE01A68111D1960136819
:1025F00084F8423004F14205A8E020681A6810F01F
:10260000800F02D0101D186008E010F0400F02F19A
:102610000400186002D0B2F9003000E01368002B0B
:102620003EDA2D225B4284F8432039E020681A68A4
:1026300010F0800F02D0101D186007E010F0400F5E
:1026400002F10400186001D0138800E01368227EB4
:10265000DFF864E16F2A0CBF08220A221CE078220E
:10266000DFF858E184F845202268186812F0800FDE
:1026700000F104051D6003D1550601D5038800E073
:102680000368D00744BF42F0200222601BB92268D1
:1026900022F0200222601022002084F8430002E091
:1026A000DFF814E10A226568A560002DA2BF20684A
:1026B00020F00400206003B965B10D46B3FBF2F0D1
:1026C00002FB10331EF8033005F8013D03460028D5
:1026D000F4D100E00D46082A0BD12368DA0708D5AB
:1026E000236962689A42DEBF302305F8013C05F198
:1026F000FF35491B21612EE025681A68606915F0D5
:10270000800F03D0151D1D60136808E015F0400F01
:1027100002F104051D60136801D0188000E0186004
:10272000002323610D4616E01A68111D1960156813
:1027300062682846002100F043F808B1401B606041
:10274000636804E004F1420584F842200123236118
:10275000002384F84330CDF800803046214603AA98
:102760003B46FFF797FE013002D14FF0FF301FE0EC
:10277000304639462A462369C0470130F5D02368E0
:102780009B0705D4E068039B9842B8BF18460FE04A
:102790000025E368039A9B1A9D42F3DA30463946D6
:1027A00004F119020123C0470130DED00135F0E702
:1027B00004B0BDE8F08100BF322C0000432C0000C3
:1027C00010B5C9B202449042034606D01C788C4230
:1027D00000F10100F7D1184610BD002010BD814264
:1027E00010B501EB020301D3421E0BE09842FBD26D
:1027F0008118D21AD34204D013F8014D01F8014DCB
:10280000F8E710BD994204D011F8014B02F8014FCE
:10281000F8E710BD30B500293DD051F8042C0B1F4E
:102820001D49002AB8BF9B180A680C4612B95A60A5
:102830000B6030BD93420DD219685818904201BF09
:102840005A5852181A6042685A60236030BD994243
:1028500003D80A4651680029F9D1146815199D4218
:102860000AD11B682344D0188842136013D108682A
:10287000034413604B680DE002D90C23036030BDA4
:102880001C681819884204BF08684968596004BF69
:1028900000191860536030BD5006002070B5CC1C84
:1028A00024F0030408340C2C38BF0C24002C0646FA
:1028B00003DA0C233360002070BD8C42F9D3204A28
:1028C000136810461946A1B10A68121B0ED40B2AD0
:1028D00003D90A608B188C501FE08B420DBF5A68D9
:1028E0004A685A60026018BF0B4616E00B464968FA
:1028F000E9E7144D2B681BB9304600F04BF828600F
:102900003046214600F046F8421C0346D1D0C51C93
:1029100025F0030585420AD11C6003F10B001A1D46
:1029200020F00700821A0AD05142995070BD3046FB
:10293000E91A00F02FF80130BBD02B46ECE770BD50
:10294000500600204C060020F8B5074615460E46F6
:1029500021B91146BDE8F840FFF7A0BF1AB9FFF74B
:1029600059FF2846F8BD00F025F8A8420ED2384697
:102970002946FFF793FF044650B131462A46FFF738
:10298000F7FB38463146FFF745FF01E03046F8BD1A
:102990002046F8BD38B5064C00230546084623609E
:1029A00000F012F8431C02D1236803B12B6038BD3C
:1029B0005806002051F8040C0028BEBF091851F831
:1029C000043CC01804387047044A05491368002BBA
:1029D00008BF0B4618441060184670475406002084
:1029E00060060020F8B500BFF8BC08BC9E467047E2
:1029F000F8B500BFF8BC08BC9E4670474300000015
:102A000000000020FFFFFFFFFFFFFFFFFFFFFFFFB2
:102A1000FFFFFFFF00000000000000000000D601E3
:102A2000070100005B253038645D00004F76657259
:102A3000666C6F770D0A00003A4552524F523A4683
:102A40006174616C0D0A00003A494E464F3A48697C
:102A500074207765616B2068616E646C65720D0A25
:102A600000000000010007000040024024000400B4
:102A70004150503A494E464F3A41444320657665AD
:102A80006E74206E756D6265723A2025640D0A00C1
:102A90004150503A494E464F3A25640D0A00000015
:102AA0004150503A494E464F3A53414144432063C6
:102AB000616C6962726174696F6E20636F6D706CB6
:102AC0006574652021200D0A000000004150503A35
:102AD000494E464F3A0A0D5341414443204C6F77CB
:102AE00020506F776572204578616D706C652E0D92
:102AF0000A0000004150503A494E464F3A53414176
:102B000044432063616C6962726174696F6E207303
:102B100074617274696E672E2E2E20200D0A0000DB
:102B2000002020202020202020202828282828209D
:102B30002020202020202020202020202020202095
:102B400020881010101010101010101010101010FD
:102B500010040404040404040404041010101010ED
:102B600010104141414141410101010101010101B7
:102B70000101010101010101010101011010101009
:102B80001010424242424242020202020202020289
:102B900002020202020202020202020210101010DD
:102BA0002000000000000000000000000000000005
:102BB0000000000000000000000000000000000015
:102BC0000000000000000000000000000000000005
:102BD00000000000000000000000000000000000F5
:102BE00000000000000000000000000000000000E5
:102BF00000000000000000000000000000000000D5
:102C000000000000000000000000000000000000C4
:102C100000000000000000000000000000000000B4
:102C200000232D302B2000686C4C006566674546FC
:102C30004700303132333435363738394142434436
:102C400045460030313233343536373839616263C6
:082C500064656600000000004D
:082C580004D6FF7F010000001B
:102C60000000000000000000000000000000000064
:102C70000000000000000000000000000000000054
:102C8000FC2900000000000000000000000000001F
:102C90000000000000000000000000000000000034
:102CA0000000000000000000000000000000000024
:102CB0000000000000000000000000000000000014
:102CC0000000002000200040000000000090D00321
:102CD000202B00002502000001020000000000007F
:0400000300001F8D4D
:00000001FF
